{
  "contractName": "DeFeed",
  "abi": [
    {
      "anonymous": false,
      "inputs": [
        {
          "indexed": false,
          "internalType": "uint256",
          "name": "id",
          "type": "uint256"
        },
        {
          "indexed": false,
          "internalType": "string",
          "name": "hash",
          "type": "string"
        },
        {
          "indexed": false,
          "internalType": "string",
          "name": "description",
          "type": "string"
        },
        {
          "indexed": false,
          "internalType": "uint256",
          "name": "donation",
          "type": "uint256"
        },
        {
          "indexed": false,
          "internalType": "address payable",
          "name": "author",
          "type": "address"
        }
      ],
      "name": "postCreated",
      "type": "event"
    },
    {
      "anonymous": false,
      "inputs": [
        {
          "indexed": false,
          "internalType": "uint256",
          "name": "id",
          "type": "uint256"
        },
        {
          "indexed": false,
          "internalType": "string",
          "name": "hash",
          "type": "string"
        },
        {
          "indexed": false,
          "internalType": "string",
          "name": "description",
          "type": "string"
        },
        {
          "indexed": false,
          "internalType": "uint256",
          "name": "donation",
          "type": "uint256"
        },
        {
          "indexed": false,
          "internalType": "address payable",
          "name": "author",
          "type": "address"
        }
      ],
      "name": "postDonation",
      "type": "event"
    },
    {
      "constant": true,
      "inputs": [],
      "name": "name",
      "outputs": [
        {
          "internalType": "string",
          "name": "",
          "type": "string"
        }
      ],
      "payable": false,
      "stateMutability": "view",
      "type": "function"
    },
    {
      "constant": true,
      "inputs": [],
      "name": "postCount",
      "outputs": [
        {
          "internalType": "uint256",
          "name": "",
          "type": "uint256"
        }
      ],
      "payable": false,
      "stateMutability": "view",
      "type": "function"
    },
    {
      "constant": true,
      "inputs": [
        {
          "internalType": "uint256",
          "name": "",
          "type": "uint256"
        }
      ],
      "name": "posts",
      "outputs": [
        {
          "internalType": "uint256",
          "name": "id",
          "type": "uint256"
        },
        {
          "internalType": "string",
          "name": "hash",
          "type": "string"
        },
        {
          "internalType": "string",
          "name": "description",
          "type": "string"
        },
        {
          "internalType": "uint256",
          "name": "donation",
          "type": "uint256"
        },
        {
          "internalType": "address payable",
          "name": "author",
          "type": "address"
        }
      ],
      "payable": false,
      "stateMutability": "view",
      "type": "function"
    },
    {
      "constant": false,
      "inputs": [
        {
          "internalType": "uint256",
          "name": "x",
          "type": "uint256"
        }
      ],
      "name": "set",
      "outputs": [],
      "payable": false,
      "stateMutability": "nonpayable",
      "type": "function"
    },
    {
      "constant": true,
      "inputs": [],
      "name": "get",
      "outputs": [
        {
          "internalType": "uint256",
          "name": "",
          "type": "uint256"
        }
      ],
      "payable": false,
      "stateMutability": "view",
      "type": "function"
    },
    {
      "constant": false,
      "inputs": [
        {
          "internalType": "string",
          "name": "postHash",
          "type": "string"
        },
        {
          "internalType": "string",
          "name": "description",
          "type": "string"
        }
      ],
      "name": "uploadPost",
      "outputs": [],
      "payable": false,
      "stateMutability": "nonpayable",
      "type": "function"
    },
    {
      "constant": false,
      "inputs": [
        {
          "internalType": "uint256",
          "name": "id",
          "type": "uint256"
        }
      ],
      "name": "donatePostAuthor",
      "outputs": [],
      "payable": true,
      "stateMutability": "payable",
      "type": "function"
    }
  ],
  "bytecode": "0x60806040526040518060400160405280600681526020017f44654665656400000000000000000000000000000000000000000000000000008152506000908051906020019061004f929190610067565b50600060025534801561006157600080fd5b5061010c565b828054600181600116156101000203166002900490600052602060002090601f016020900481019282601f106100a857805160ff19168380011785556100d6565b828001600101855582156100d6579182015b828111156100d55782518255916020019190600101906100ba565b5b5090506100e391906100e7565b5090565b61010991905b808211156101055760008160009055506001016100ed565b5090565b90565b610ee58061011b6000396000f3fe6080604052600436106100705760003560e01c806317906c2e1161004e57806317906c2e146103c557806360fe47b1146103f05780636d4ce63c1461042b578063d880874c1461045657610070565b806306fdde03146100755780630b1e7f83146101055780630cb1c7ee14610266575b600080fd5b34801561008157600080fd5b5061008a610484565b6040518080602001828103825283818151815260200191508051906020019080838360005b838110156100ca5780820151818401526020810190506100af565b50505050905090810190601f1680156100f75780820380516001836020036101000a031916815260200191505b509250505060405180910390f35b34801561011157600080fd5b5061013e6004803603602081101561012857600080fd5b8101908080359060200190929190505050610522565b6040518086815260200180602001806020018581526020018473ffffffffffffffffffffffffffffffffffffffff1673ffffffffffffffffffffffffffffffffffffffff168152602001838103835287818151815260200191508051906020019080838360005b838110156101c05780820151818401526020810190506101a5565b50505050905090810190601f1680156101ed5780820380516001836020036101000a031916815260200191505b50838103825286818151815260200191508051906020019080838360005b8381101561022657808201518184015260208101905061020b565b50505050905090810190601f1680156102535780820380516001836020036101000a031916815260200191505b5097505050505050505060405180910390f35b34801561027257600080fd5b506103c36004803603604081101561028957600080fd5b81019080803590602001906401000000008111156102a657600080fd5b8201836020820111156102b857600080fd5b803590602001918460018302840111640100000000831117156102da57600080fd5b91908080601f016020809104026020016040519081016040528093929190818152602001838380828437600081840152601f19601f8201169050808301925050505050505091929192908035906020019064010000000081111561033d57600080fd5b82018360208201111561034f57600080fd5b8035906020019184600183028401116401000000008311171561037157600080fd5b91908080601f016020809104026020016040519081016040528093929190818152602001838380828437600081840152601f19601f8201169050808301925050505050505091929192905050506106a8565b005b3480156103d157600080fd5b506103da610951565b6040518082815260200191505060405180910390f35b3480156103fc57600080fd5b506104296004803603602081101561041357600080fd5b8101908080359060200190929190505050610957565b005b34801561043757600080fd5b50610440610961565b6040518082815260200191505060405180910390f35b6104826004803603602081101561046c57600080fd5b810190808035906020019092919050505061096b565b005b60008054600181600116156101000203166002900480601f01602080910402602001604051908101604052809291908181526020018280546001816001161561010002031660029004801561051a5780601f106104ef5761010080835404028352916020019161051a565b820191906000526020600020905b8154815290600101906020018083116104fd57829003601f168201915b505050505081565b6003602052806000526040600020600091509050806000015490806001018054600181600116156101000203166002900480601f0160208091040260200160405190810160405280929190818152602001828054600181600116156101000203166002900480156105d45780601f106105a9576101008083540402835291602001916105d4565b820191906000526020600020905b8154815290600101906020018083116105b757829003601f168201915b505050505090806002018054600181600116156101000203166002900480601f0160208091040260200160405190810160405280929190818152602001828054600181600116156101000203166002900480156106725780601f1061064757610100808354040283529160200191610672565b820191906000526020600020905b81548152906001019060200180831161065557829003601f168201915b5050505050908060030154908060040160009054906101000a900473ffffffffffffffffffffffffffffffffffffffff16905085565b60008251116106b657600080fd5b60008151116106c457600080fd5b600073ffffffffffffffffffffffffffffffffffffffff163373ffffffffffffffffffffffffffffffffffffffff1614156106fe57600080fd5b6002600081548092919060010191905055506040518060a001604052806002548152602001838152602001828152602001600081526020013373ffffffffffffffffffffffffffffffffffffffff1681525060036000600254815260200190815260200160002060008201518160000155602082015181600101908051906020019061078b929190610dc6565b5060408201518160020190805190602001906107a8929190610dc6565b506060820151816003015560808201518160040160006101000a81548173ffffffffffffffffffffffffffffffffffffffff021916908373ffffffffffffffffffffffffffffffffffffffff1602179055509050507f59c7a36711655e213dab6374c3a54f1273b8189a64ac818ba3fc631b14260efe60025483836000336040518086815260200180602001806020018581526020018473ffffffffffffffffffffffffffffffffffffffff1673ffffffffffffffffffffffffffffffffffffffff168152602001838103835287818151815260200191508051906020019080838360005b838110156108a857808201518184015260208101905061088d565b50505050905090810190601f1680156108d55780820380516001836020036101000a031916815260200191505b50838103825286818151815260200191508051906020019080838360005b8381101561090e5780820151818401526020810190506108f3565b50505050905090810190601f16801561093b5780820380516001836020036101000a031916815260200191505b5097505050505050505060405180910390a15050565b60025481565b8060018190555050565b6000600154905090565b60008111801561097d57506002548111155b61098657600080fd5b61098e610e46565b600360008381526020019081526020016000206040518060a001604052908160008201548152602001600182018054600181600116156101000203166002900480601f016020809104026020016040519081016040528092919081815260200182805460018160011615610100020316600290048015610a4f5780601f10610a2457610100808354040283529160200191610a4f565b820191906000526020600020905b815481529060010190602001808311610a3257829003601f168201915b50505050508152602001600282018054600181600116156101000203166002900480601f016020809104026020016040519081016040528092919081815260200182805460018160011615610100020316600290048015610af15780601f10610ac657610100808354040283529160200191610af1565b820191906000526020600020905b815481529060010190602001808311610ad457829003601f168201915b50505050508152602001600382015481526020016004820160009054906101000a900473ffffffffffffffffffffffffffffffffffffffff1673ffffffffffffffffffffffffffffffffffffffff1673ffffffffffffffffffffffffffffffffffffffff168152505090506000816080015190508073ffffffffffffffffffffffffffffffffffffffff166108fc349081150290604051600060405180830381858888f19350505050158015610bab573d6000803e3d6000fd5b50348260600151018260600181815250508160036000858152602001908152602001600020600082015181600001556020820151816001019080519060200190610bf6929190610dc6565b506040820151816002019080519060200190610c13929190610dc6565b506060820151816003015560808201518160040160006101000a81548173ffffffffffffffffffffffffffffffffffffffff021916908373ffffffffffffffffffffffffffffffffffffffff1602179055509050507f604cf95f4303c95729aaaac6926ae93ac5ec49d0211217a79edb4b06470ef0e183836020015184604001518560600151856040518086815260200180602001806020018581526020018473ffffffffffffffffffffffffffffffffffffffff1673ffffffffffffffffffffffffffffffffffffffff168152602001838103835287818151815260200191508051906020019080838360005b83811015610d1c578082015181840152602081019050610d01565b50505050905090810190601f168015610d495780820380516001836020036101000a031916815260200191505b50838103825286818151815260200191508051906020019080838360005b83811015610d82578082015181840152602081019050610d67565b50505050905090810190601f168015610daf5780820380516001836020036101000a031916815260200191505b5097505050505050505060405180910390a1505050565b828054600181600116156101000203166002900490600052602060002090601f016020900481019282601f10610e0757805160ff1916838001178555610e35565b82800160010185558215610e35579182015b82811115610e34578251825591602001919060010190610e19565b5b509050610e429190610e8b565b5090565b6040518060a0016040528060008152602001606081526020016060815260200160008152602001600073ffffffffffffffffffffffffffffffffffffffff1681525090565b610ead91905b80821115610ea9576000816000905550600101610e91565b5090565b9056fea265627a7a72315820a092cb53d3d7670f0877ecbd45a5e16776014a5fe4dc40fc3a888ee367c5dd0164736f6c63430005100032",
  "source": "pragma solidity >=0.4.21 <0.7.0;\r\n\r\ncontract DeFeed {\r\n    string public name= \"DeFeed\";\r\n    uint storedData;\r\n    \r\n    function set(uint x) public {\r\n        storedData = x;\r\n    }\r\n\r\n    function get() public view returns (uint) {\r\n        return storedData;\r\n    }\r\n\r\n    // Storing Posts\r\n    uint public postCount= 0;\r\n    mapping(uint => Post) public posts;\r\n\r\n    struct Post {\r\n        uint id;\r\n        string hash;\r\n        string description;\r\n        uint donation;\r\n        address payable author;\r\n    }\r\n\r\n    event postCreated(\r\n        uint id,\r\n        string hash,\r\n        string description,\r\n        uint donation,\r\n        address payable author\r\n    );\r\n\r\n    event postDonation(\r\n        uint id,\r\n        string hash,\r\n        string description,\r\n        uint donation,\r\n        address payable author\r\n    );\r\n\r\n    // Creating Posts\r\n    function uploadPost(string memory postHash, string memory description) public {\r\n        \r\n        // Validations\r\n        require(bytes(postHash).length > 0); // Checking if Post Hash Exists\r\n        \r\n        require(bytes(description).length > 0); // Checking if Post Description Exists\r\n        \r\n        require(msg.sender != address(0x0)); // Checking if Uploader Address Exists\r\n\r\n        // Incrementing Post Count\r\n        postCount ++; \r\n\r\n        // Adding Posts to contract\r\n        posts[postCount]= Post(postCount, postHash, description, 0, msg.sender);\r\n\r\n        // Event Triggering\r\n        emit postCreated(postCount, postHash, description, 0, msg.sender);\r\n    }\r\n\r\n    // Donating\r\n    function donatePostAuthor(uint id) public payable {\r\n        \r\n        require(id > 0 && id <= postCount);\r\n\r\n        // Fetch Post\r\n        Post memory post= posts[id];\r\n        address payable author= post.author;\r\n        \r\n        //Paying Author with Ether\r\n        address(author).transfer(msg.value);\r\n\r\n        // Increment the Donation Amount\r\n        post.donation= post.donation + msg.value;\r\n\r\n        // Update the Post\r\n        posts[id]= post;\r\n\r\n        // Event Triggering\r\n        emit postDonation(id, post.hash, post.description, post.donation, author);\r\n    }\r\n}\r\n\r\n",
  "sourcePath": "C:/Users/Yashi S/DeFeed/contracts/DeFeed.sol",
  "compiler": {
    "name": "solc",
    "version": "0.5.16+commit.9c3226ce.Emscripten.clang"
  },
  "schemaVersion": "3.4.0",
  "updatedAt": "2021-05-08T00:35:43.880Z",
  "networkType": "ethereum",
  "devdoc": {
    "methods": {}
  },
  "userdoc": {
    "methods": {}
  }
}